S00F00004E6577204F44452E73726563F3
S11300000C94B5000C94D2000C94D2000C94D20041
S11300100C94D2000C94D2000C94D2000C94D20014
S11300200C94D2000C94D2000C94D2000C94D20004
S11300300C94D2000C94D2000C94D2000C94D200F4
S11300400C94D2000C94D2000C94D2000C94D200E4
S11300500C94D2000C94D2000C94D2000C94D200D4
S11300600C94D2000C94D2006E616E00696E66002E
S113007000407A10F35A00A0724E18090010A5D45B
S1130080E80000E87648170000E40B54020000CAB8
S11300909A3B000000E1F5050000809698000000FE
S11300A040420F000000A08601000000102700005D
S11300B00000E803000000006400000000000A00E3
S11300C0000000000100000000002C76D888DC67E6
S11300D04F0823DFC1DFAE59E1B1B796E5E3E4533E
S11300E0C63AE651997696E8E6C28426EB898C9B5B
S11300F062ED407C6FFCEFBC9C9F40F2BAA56FA5FB
S1130100F490055A2AF75C936B6CF9676DC11BFC7C
S1130110E0E40D47FEF520E6B500D0ED902E030097
S1130120943577050080841E080000204E0A0000E4
S113013000C80C333333330F986E12831141EF8DA3
S11301402114893BE65516CFFEE6DB18D1844B38E3
S11301501BF77C1D901DA4BBE424203284725E2214
S11301608100C9F124ECA1E53D2711241FBECFEF86
S1130170D8E0DEBFCDBF11E0A0E0B1E0E0EAF9E1F4
S113018002C005900D92AC37B107D9F724E0ACE773
S1130190B1E001C01D92A432B207E1F70E94CF0181
S11301A00C94CE0C0C940000CF93C82F8A3019F411
S11301B08DE00E94D400E0ECF0E0808185FFFDCF6B
S11301C0C093C60080E090E0CF9108951092C500DE
S11301D087E68093C400E1ECF0E08081886180834D
S11301E080818068808386E08093C20080E091E013
S11301F090932104809320040895E0ECF0E0908132
S113020095FFFDCF8093C60008954F925F926F9241
S11302107F928F929F92AF92BF92CF92DF92EF9292
S1130220FF92CF93DF93E901C880D980EA80FB80F5
S1130230009709F063C0A70196016C817D818E81CE
S11302409F810E940C054B015C0120E030E040E8F6
S11302505FE3C701B6010E940D050E94F0059B01F2
S1130260772324F422273327261B370BB901330FB6
S1130270880B990B0E94280624EE35EA4BE55EEBC9
S11302800E94D8062B013C0124EB38EC46E35FEBDB
S1130290C701B6010E94D8069B01AC01C301B2019B
S11302A00E940D052B013C0120E030E040E85FE3B3
S11302B0C701B6010E940C050E94F0059B0177233B
S11302C024F422273327261B370BB901330F880B5D
S11302D0990B0E9428069B01AC01C301B2010E9444
S11302E00C059B01AC01C501B4010E940C052AE96F
S11302F039E949E751E40E94D8061BC0019779F413
S11303002C813D814E815F81C701B6010E940C059D
S1130310288539854A855B850E940D050AC020E041
S113032030E040EE51EC6C817D818E819F810E9492
S1130330D806DF91CF91FF90EF90DF90CF90BF90E0
S1130340AF909F908F907F906F905F904F900895A3
S1130350ECEBF0E080818823ECF70895CF93C82F6D
S11303601F928F938AE191E09F938F930E94230CB5
S11303708AE00E94FD00C093BB0084E88093BC0027
S11303800F900F900F900F90CF91089580E280937B
S1130390B80084E08093BC001092B90008952F92B5
S11303A03F924F925F926F927F928F929F92AF9201
S11303B0BF92CF92DF92EF92FF920F931F93CF934E
S11303C0DF93CDB7DEB72A970FB6F894DEBF0FBE22
S11303D0CDBF0E94C6010E94E60060917E0170912B
S11303E07F01809180019091810120E030E040E81C
S11303F05FE30E94790588230CF0DEC280917E01C0
S113040090917F01A0918001B0918101BF93AF933E
S11304109F938F938FE291E09F938F930E94230C7D
S11304200F2EFAEB2F2EF1E03F2EF02D8EE091E00F
S11304309A83898302EB11E00F900F900F900F9035
S11304400F900F9058016C0171011E821D82409122
S11304507E0150917F0160918001709181012EE0B5
S113046031E08D819E810E940501F70161937193B2
S1130470819391937F01F601419051906190719025
S11304806F0120E030E040E05FE30E94D8062AE0FC
S113049037ED43E25CE30E94D806A30192010E9477
S11304A00D05F50161937193819391935F018D81A2
S11304B09E8101969E838D83039749F6EAE9F1E0D4
S11304C0F887EF830F2EF2EBAF2EF1E0BF2EF02D65
S11304D00F2EFEE0CF2EF1E0DF2EF02D7F011E82E5
S11304E01D8240917E0150917F0160918001709145
S11304F0810122EB31E08D819E810E940501F7018B
S113050061937193819391937F01F601419051908E
S1130510619071906F0120E030E040E05FE30E9461
S1130520D8062AE037ED43E25CE30E94D806A30133
S113053092010E940D05F50161937193819391934A
S11305405F018D819E8101969E838D83039749F679
S1130550EEE8F1E0FE83ED830F2EFEE0CF2EF1E016
S1130560DF2EF02D7F011A86198660917E0170912D
S11305707F0180918001909181012AE037ED43EA67
S11305805BE30E940D05AB01BC0122EB31E08985E0
S11305909A850E940501F701619371938193919368
S11305A07F01F60181909190A190B1906F0120E0BC
S11305B030E040E05FE30E94D8062AE037ED43E2F2
S11305C05CE30E94D806A50194010E940D05F80180
S11305D061937193819391938F0189859A85019693
S11305E09A878987039709F6E2E8F1E07F0100E042
S11305F010E0FA87E98760917E0170917F01809114
S11306008001909181012AE037ED43E25CE30E948E
S11306100D05AB01BC0122EB31E0C8010E940501CC
S1130620F70161937193819391937F010F5F1F4F42
S11306300330110501F709811A81F101619171916A
S1130640819191911F01EF81F885419051906190C2
S11306507190F887EF83ED81FE81C190D190E19094
S1130660F190FE83ED83E985FA8581909190A190C4
S1130670B190FA87E98720E030E040EC50E40E9432
S11306807E0569837A838B839C8320E030E040E499
S113069050E4C301B2010E947E059B01AC01698153
S11306A07A818B819C810E940D052B013C0120E005
S11306B030E040E450E4C701B6010E947E059B018E
S11306C0AC01C301B2010E940D056B017C0120E065
S11306D030E040EC50E4C501B4010E947E059B016A
S11306E0AC01C701B6010E940D052AE037ED43E2D3
S11306F05CE30E94D8069B01AC01F8016081718122
S1130700828193810E940D05F80161937193819315
S113071091938F0186EC91E08215930509F08DCFBA
S1130720E0917C01F0917D01EE0FFF1FE257FD4F38
S1130730FA83E9830EE011E020E030E04AE753E475
S1130740F80160817181828193810E940D050E946C
S1130750F005E981FA817183608380917C01909135
S11307607D01880F991F8A5A9C4F9A83898320E0C0
S113077030E048EC52E4F801648175818681978108
S11307800E940D050E94F005E981FA81718360835E
S113079080917C0190917D01880F991F8A539E4F0F
S11307A09A83898320E030E048E453E4F8016085CB
S11307B07185828593850E940D050E94F005E9816B
S11307C0FA817183608360917E0170917F018091D1
S11307D08001909181012AE037ED43E25CE30E94BD
S11307E00D0560937E0170937F0180938001909347
S11307F0810180917C0190917D01019690937D010E
S113080080937C0160917E0170917F0180918001D1
S11308109091810120E030E040E85FE30E94790597
S113082088230CF4EBCDC8C0F801A0820E94A80173
S113083080EC0E94AE010E94A801C980DA80F60112
S113084081919191FA83E9839695879596958795F9
S11308500E94AE010E94A801F60180810E94AE01AF
S11308600E94A801F801B08289819A818E159F05A2
S1130870D9F68AE391E00E94400CEEE8F2E081812F
S11308808F9380818F938EE491E09F938F930E9446
S1130890230C00E912E00F900F900F900F90E1E00D
S11308A0F0E00F2EFEE4CF2EF1E0DF2EF02DFA83E0
S11308B0E9831CC0F801808191810E5F1F4F9F93D3
S11308C08F93DF92CF920E94230C89819A810196A3
S11308D09A8389830F900F900F900F900A9731F4A9
S11308E08AE090E00E94390C1A8219820E151F05C5
S11308F009F782E591E00E94400C06E513E00F2E13
S1130900FEE1CF2EF4E0DF2EF02D0F2EFEE4EF2ECD
S1130910F1E0FF2EF02DF801808191810E5F1F4FD1
S11309209F938F93FF92EF920E94230C89819A8167
S113093001969A8389830F900F900F900F900A97D6
S113094031F48AE090E00E94390C1A821982C016B0
S1130950D10609F787E691E00E94400C06EC11E00D
S11309600F2EFEE8CF2EF2E0DF2EF02D0F2EFEE448
S1130970EF2EF1E0FF2EF02DF801808191810E5FC2
S11309801F4F9F938F93FF92EF920E94230C8981B4
S11309909A8101969A8389830F900F900F900F90FC
S11309A00A9731F48AE090E00E94390C1A82198285
S11309B0C016D10609F715C0EEE8F2E00F2EF6E5F1
S11309C0EF2EF3E0FF2EF02D0CEB10E00F2EF4EAE7
S11309D0AF2EF02D0F2EF4E9BF2EF02DFA83E9830C
S11309E023CF80E090E02A960FB6F894DEBF0FBEC6
S11309F0CDBFDF91CF911F910F91FF90EF90DF90CA
S1130A00CF90BF90AF909F908F907F906F905F90AA
S1130A104F903F902F9008955058BB27AA270E94CB
S1130A2024050C949E060E94900638F00E949706B6
S1130A3020F039F49F3F19F426F40C948D060EF43B
S1130A40E095E7FB0C948706E92F0E94AF0658F364
S1130A50BA17620773078407950720F079F4A6F59F
S1130A600C94D1060EF4E0950B2EBA2FA02D0B0199
S1130A70B90190010C01CA01A0011124FF27591BDF
S1130A8099F0593F50F4503E68F11A16F040A22FE5
S1130A90232F342F4427585FF3CF46953795279556
S1130AA0A795F0405395C9F77EF41F16BA0B620B55
S1130AB0730B840BBAF09150A1F0FF0FBB1F661F9C
S1130AC0771F881FC2F70EC0BA0F621F731F841FDF
S1130AD048F4879577956795B795F7959E3F08F005
S1130AE0B0CF9395880F08F09927EE0F97958795C7
S1130AF008950E94630608F481E008950E94920517
S1130B000C949E060E94970658F00E94900640F0AE
S1130B1029F45F3F29F00C94870651110C94D206F6
S1130B200C948D060E94AF0668F39923B1F3552304
S1130B3091F3951B550BBB27AA27621773078407EC
S1130B4038F09F5F5F4F220F331F441FAA1FA9F382
S1130B5035D00E2E3AF0E0E832D091505040E69570
S1130B60001CCAF72BD0FE2F29D0660F771F881FD1
S1130B70BB1F261737074807AB07B0E809F0BB0BC4
S1130B80802DBF01FF2793585F4F3AF09E3F5105D8
S1130B9078F00C9487060C94D2065F3FE4F3983EF9
S1130BA0D4F3869577956795B795F7959F5FC9F7C1
S1130BB0880F911D9695879597F90895E1E0660F42
S1130BC0771F881FBB1F621773078407BA0720F0BB
S1130BD0621B730B840BBA0BEE1F88F7E095089524
S1130BE00E94F7056894B1110C94D20608950E94EE
S1130BF0B70688F09F5798F0B92F9927B751B0F0EE
S1130C00E1F0660F771F881F991F1AF0BA95C9F78C
S1130C1014C0B13091F00E94D106B1E008950C9453
S1130C20D106672F782F8827B85F39F0B93FCCF306
S1130C30869577956795B395D9F73EF49095809509
S1130C40709561957F4F8F4F9F4F0895E89409C029
S1130C5097FB3EF490958095709561957F4F8F4FEB
S1130C609F4F9923A9F0F92F96E9BB279395F69501
S1130C70879577956795B795F111F8CFFAF4BB0F7F
S1130C8011F460FF1BC06F5F7F4F8F4F9F4F16C0E3
S1130C90882311F096E911C0772321F09EE8872F6D
S1130CA0762F05C0662371F096E8862F70E060E029
S1130CB02AF09A95660F771F881FDAF7880F9695A2
S1130CC0879597F90895990F0008550FAA0BE0E846
S1130CD0FEEF16161706E807F907C0F012161306FA
S1130CE0E407F50798F0621B730B840B950B39F43A
S1130CF00A2661F0232B242B252B21F408950A26A0
S1130D0009F4A140A6958FEF811D811D089597F9DF
S1130D109F6780E870E060E008959FEF80EC08959D
S1130D2000240A94161617061806090608950024C6
S1130D300A9412161306140605060895092E039440
S1130D40000C11F4882352F0BB0F40F4BF2B11F4B4
S1130D5060FF04C06F5F7F4F8F4F9F4F089557FD13
S1130D609058440F551F59F05F3F71F04795880F15
S1130D7097FB991F61F09F3F79F0879508951216AC
S1130D8013061406551FF2CF4695F1DF08C0161658
S1130D9017061806991FF1CF869571056105089409
S1130DA00895E894BB2766277727CB0197F9089520
S1130DB00E94EB060C949E060E94900638F00E9456
S1130DC0970620F0952311F00C9487060C948D0659
S1130DD011240C94D2060E94AF0670F3959FC1F3C0
S1130DE0950F50E0551F629FF001729FBB27F00DD5
S1130DF0B11D639FAA27F00DB11DAA1F649F66272A
S1130E00B00DA11D661F829F2227B00DA11D621F78
S1130E10739FB00DA11D621F839FA00D611D221F32
S1130E20749F3327A00D611D231F849F600D211D16
S1130E30822F762F6A2F11249F5750409AF0F1F099
S1130E4088234AF0EE0FFF1FBB1F661F771F881F02
S1130E5091505040A9F79E3F510580F00C948706AD
S1130E600C94D2065F3FE4F3983ED4F386957795CD
S1130E706795B795F795E7959F5FC1F7FE2B880FA8
S1130E80911D9695879597F90895A0E1B0E0EBE45C
S1130E90F7E00C94C20A7C011B016A01FC01178271
S1130EA01682838181FF44C39E012F5F3F4F390126
S1130EB0F7019381F10193FD859193FF81911F01C6
S1130EC0882309F431C3853239F493FD859193FF66
S1130ED081911F01853239F4B70190E00E94E70B3C
S1130EE056016501E5CF10E0512C912CFFE1F91575
S1130EF0D8F08B3279F038F4803279F08332A1F46F
S1130F00F92DF0612EC08D3261F0803369F4292D02
S1130F1021602DC0392D3260932E892D8460982E46
S1130F202AC0E92DE86015C097FC2DC020ED280FDC
S1130F302A3088F496FE06C03AE0139F200D11244F
S1130F40122F19C08AE0589E200D1124522EE92D2B
S1130F50E0629E2E10C08E3231F496FCE5C2F92D6B
S1130F60F0649F2E08C08C3621F4292D2068922E1F
S1130F7002C0883641F4F10193FD859193FF81917C
S1130F801F018111B3CF9BEB980F933020F4992D5F
S1130F909061805E07C09BE9980F933008F066C1AA
S1130FA0992D9F7E96FF16E09F73992E853619F42E
S1130FB09064992E08C0863621F4392F3068932E18
S1130FC002C01111115097FE07C01C3350F4442481
S1130FD04394410E27E00BC0183038F027E017E0A7
S1130FE005C027E09CE3492E02C0212F412C560165
S1130FF084E0A80EB11CF601608171818281938125
S1131000042DA3010E94F90A6C01F981FC87F0FF09
S113101002C0F3FF06C091FC06C092FE06C000E2C7
S113102005C00DE203C00BE201C000E08C858C70AA
S113103019F001115AC29BC297FE10C04C0CFC85DA
S1131040F4FF04C08A81813309F44A94141474F5BA
S113105028E0241578F588E0482E2CC096FC2AC098
S1131060812F90E08C159D059CF03CEFC3163FEF5B
S1131070D30674F0892D8068982E0AC0E2E0F0E06F
S1131080EC0FFD1FE10FF11D8081803319F4115025
S11310901111F4CF97FE0EC044244394410E812FC6
S11310A090E0C816D9062CF41C1904C044244394B7
S11310B001C010E097FE06C01C141D0434F4C601E0
S11310C0019605C085E090E002C081E090E0011146
S11310D00196112331F0212F30E02F5F3F4F820F13
S11310E0931F252D30E08217930714F4581A01C07A
S11310F0512C892D897049F4552039F0B70180E2CB
S113110090E00E94E70B5A94F7CF002329F0B7012F
S1131110802F90E00E94E70B93FC09C0552039F022
S1131120B70180E390E00E94E70B5A94F7CF97FE53
S11311304CC04601D7FE02C0812C912CC6018819EF
S11311409909F301E80FF91FFE87ED879601241929
S11311503109388B2F87012F10E011950195110962
S11311603FEF8316930629F4B7018EE290E00E94C4
S1131170E70BC814D9044CF08F8598898815990514
S113118024F4ED85FE85818101C080E3F1E08F1AAE
S113119091082D853E852F5F3F4F3E872D87801612
S11311A091062CF0B70190E00E94E70BD9CFC81448
S11311B0D90441F49A81963320F4953319F43C858B
S11311C034FF81E3B70190E04EC08A81813319F086
S11311D09C859F7E9C87B70190E00E94E70B1111CC
S11311E005C094FC18C085E690E017C0B7018EE2F4
S11311F090E00E94E70B1E5F82E001E0080FF3011C
S1131200E80FF11D8081B70190E00E94E70B802F69
S11312100113F3CFE6CF85E490E0B7010E94E70B1A
S1131220D7FC06C0C114D10441F4EC85E4FF05C029
S1131230D194C194D1088DE201C08BE2B70190E052
S11312400E94E70B80E32AE0C216D1042CF08F5FE2
S1131250FAE0CF1AD108F7CFB70190E00E94E70B6C
S1131260B701C601C0960E94E70B54C1833631F022
S1131270833779F0833509F056C020C0560132E037
S1131280A30EB11CF6018081898301E010E06301A3
S113129012C05601F2E0AF0EB11CF601C080D1803D
S11312A096FE03C0612F70E002C06FEF7FEFC601AE
S11312B00E94DC0B8C01F92DFF7714C0560122E04B
S11312C0A20EB11CF601C080D18096FE03C0612F2E
S11312D070E002C06FEF7FEFC6010E94D10B8C015A
S11312E0F92DF0689F2EF3FD1AC0852D90E00817A4
S11312F01907A8F4B70180E290E00E94E70B5A9422
S1131300F4CFF60197FC859197FE81916F01B701A7
S113131090E00E94E70B51105A94015011090115F5
S1131320110579F7F7C0843611F0893661F5560155
S113133097FE09C024E0A20EB11CF6016081718100
S1131340828193810AC0F2E0AF0EB11CF601608184
S11313507181072E000C880B990BF92DFF769F2EB7
S113136097FF09C090958095709561957F4F8F4F39
S11313709F4FF0689F2E2AE030E0A3010E94700C7A
S1131380C82EC6183FC0092D853721F40F7E2AE0E8
S113139030E01DC0097F8F3691F018F4883559F07C
S11313A0C3C0803719F0883711F0BEC0006104FF54
S11313B009C0046007C094FE08C0066006C028E0A7
S11313C030E005C020E130E002C020E132E0560107
S11313D007FF09C084E0A80EB11CF6016081718189
S11313E08281938108C0F2E0AF0EB11CF6016081E6
S11313F0718180E090E0A3010E94700CC82EC61891
S11314000F77902E96FE0BC0092D0E7FC11650F457
S113141094FE0AC092FC08C0092D0E7E05C0DC2C87
S1131420092D03C0DC2C01C0D12E04FF0DC0FE0128
S1131430EC0DF11D8081803311F4097E09C002FF97
S113144006C0D394D39404C0802F867809F0D39433
S113145003FD11C000FF06C01C2DD51480F4150D2A
S11314601D190DC0D51458F4B70180E290E00E9414
S1131470E70BD394F7CFD51410F45D1801C0512CA9
S113148004FF10C0B70180E390E00E94E70B02FF65
S113149017C001FD03C088E790E002C088E590E032
S11314A0B7010CC0802F867859F001FF02C08BE28F
S11314B001C080E207FD8DE2B70190E00E94E70BD6
S11314C0C11638F4B70180E390E00E94E70B115095
S11314D0F7CFCA94F301EC0DF11D8081B70190E0C0
S11314E00E94E70BC110F5CF15C0F4E0F51560F5C7
S11314F084E0581A93FE1FC0011127C02C8523FFD6
S11315002AC008E610E0392D3071932EF801849139
S1131510811124C0552009F4E4CCB70180E290E0A5
S11315200E94E70B5A94F6CFF7018681978126C073
S11315308FEF9FEF23C0B70180E290E00E94E70B9A
S11315405A945110F8CFD8CF512CB701802F90E086
S11315500E94E70BD3CF0CE610E0D5CF9110805258
S1131560B70190E00E94E70B0F5F1F4FCFCF23E03E
S1131570251510F483E0BDCF512CC0CF6096E2E175
S11315800C94DE0A2F923F924F925F926F927F9259
S11315908F929F92AF92BF92CF92DF92EF92FF927F
S11315A00F931F93CF93DF93CDB7DEB7CA1BDB0B2B
S11315B00FB6F894DEBF0FBECDBF09942A883988D0
S11315C048885F846E847D848C849B84AA84B984D7
S11315D0C884DF80EE80FD800C811B81AA81B981E3
S11315E0CE0FD11D0FB6F894DEBF0FBECDBFED01F7
S11315F00895283008F027E03327DA01990F311DC8
S113160087FD916000966105710539F432602E5FA3
S11316103D9330E32A95E1F708959F3F30F08038F9
S11316207105610509F03C5F3C5F3D93913008F022
S11316308068911DDF93CF931F930F93FF92EF92D6
S1131640192F987F9695E92F96959695E90FFF2780
S1131650E653FF4F99273327EE24FF24A701E70120
S113166005900894079428F4360FE71EF81E491FC6
S1131670511D660F771F881F991F0694A1F70590C7
S1131680079428F4E70EF81E491F561FC11D770F53
S1131690881F991F661F0694A1F70590079428F4E4
S11316A0F80E491F561FC71FD11D880F991F661FAB
S11316B0771F0694A1F70590079420F4490F561F4D
S11316C0C71FD81F990F661F771F881F0694A9F795
S11316D084911095177041F0D695C7955795479505
S11316E0F794E7941A95C1F7E0E7F0E06894159051
S11316F0159135916591959105907FE27395E11867
S1131700F10A430B560BC90BD009C0F7E10CF11ECB
S1131710431F561FC91FD01D7EF4703311F48A95E0
S1131720E6CFE894015030F0080F0AF400270217BE
S113173008F4202F2395022F7A3328F079E37D9340
S11317402A95E9F710C07D932A9589F60694979512
S11317506795379517951794E118F10A430B560BC3
S1131760C90BD00998F023957E9173957A3308F0CC
S113177070E37C932013B8F77E9170617D9330F011
S1131780839571E37D9370E32A95E1F71124EF903B
S1131790FF900F911F91CF91DF91992787FD90952D
S11317A00895FC010590615070400110D8F78095B0
S11317B090958E0F9F1F0895FC0161507040019019
S11317C00110D8F7809590958E0F9F1F08950F9361
S11317D01F93CF93DF93FB01238121FD03C08FEF80
S11317E09FEF2CC022FF16C046815781248135818A
S11317F04217530744F4A081B1819D012F5F3F4FED
S1131800318320838C93268137812F5F3F4F378329
S1131810268314C08B01EC01FB010084F185E02DCB
S11318200995892BE1F6D80116968D919C9117970D
S1131830019617969C938E931697CE01DF91CF91C4
S11318401F910F910895A0E0B0E0E9E2FCE00C9450
S1131850D20AAE014B5F5F4FFA0161917191AF0102
S113186080912004909121040E944507E2E00C94A9
S1131870EE0A60912004709121040E94E70B089500
S11318800F931F93CF93DF93E0912004F0912104F1
S1131890238121FF1BC08C01D0E0C0E0F8018191BD
S11318A08F016091200470912104DB011896ED9161
S11318B0FC911997882331F00995892B79F3DFEF8F
S11318C0CFEFECCF8AE00995892B19F08FEF9FEFCA
S11318D002C08D2F9C2FDF91CF911F910F910895FE
S11318E0FA01AA27283051F1203181F1E8946F934D
S11318F06E7F6E5F7F4F8F4F9F4FAF4FB1E03ED0F3
S1131900B4E03CD0670F781F891F9A1FA11D680F90
S1131910791F8A1F911DA11D6A0F711D811D911DC3
S1131920A11D20D009F468943F912AE0269F112438
S11319303019305D3193DEF6CF010895462F47709C
S1131940405D4193B3E00FD0C9F7F6CF462F4F70F7
S1131950405D4A3318F0495D31FD4052419302D055
S1131960A9F7EACFB4E0A6959795879577956795FB
S1131970BA95C9F700976105710508959B01AC01FB
S11319800A2E06945795479537952795BA95C9F722
S1131990620F731F841F951FA01D0895F894FFCF35
S11319A00000000200000000D400000000003333F7
S11319B0333F000000000000000054686973206990
S11319C0732074686520646174613A20256400544E
S11319D0696D65203D2025660A0046696E616C20AC
S11319E076616C756573206F6620583A2000256413
S11319F020000A46696E616C2076616C75657320FF
S1131A006F6620593A20000A46696E616C2076613F
S10F1A106C756573206F66205A3A200044
S9030000FC
